{
  "contractName": "SupplyChain",
  "abi": [
    {
      "constant": false,
      "inputs": [
        {
          "name": "account",
          "type": "address"
        }
      ],
      "name": "addAluminumProducer",
      "outputs": [],
      "payable": false,
      "stateMutability": "nonpayable",
      "type": "function",
      "signature": "0x0bd83936"
    },
    {
      "constant": false,
      "inputs": [
        {
          "name": "account",
          "type": "address"
        }
      ],
      "name": "addAutoManufacturer",
      "outputs": [],
      "payable": false,
      "stateMutability": "nonpayable",
      "type": "function",
      "signature": "0x0e746c3a"
    },
    {
      "constant": true,
      "inputs": [
        {
          "name": "account",
          "type": "address"
        }
      ],
      "name": "isAluminumProducer",
      "outputs": [
        {
          "name": "",
          "type": "bool"
        }
      ],
      "payable": false,
      "stateMutability": "view",
      "type": "function",
      "signature": "0x3025e875"
    },
    {
      "constant": true,
      "inputs": [
        {
          "name": "account",
          "type": "address"
        }
      ],
      "name": "isAutoManufacturer",
      "outputs": [
        {
          "name": "",
          "type": "bool"
        }
      ],
      "payable": false,
      "stateMutability": "view",
      "type": "function",
      "signature": "0x5a0679d3"
    },
    {
      "constant": false,
      "inputs": [],
      "name": "renounceDistributor",
      "outputs": [],
      "payable": false,
      "stateMutability": "nonpayable",
      "type": "function",
      "signature": "0x644241db"
    },
    {
      "constant": false,
      "inputs": [],
      "name": "renounceAutoManufacturer",
      "outputs": [],
      "payable": false,
      "stateMutability": "nonpayable",
      "type": "function",
      "signature": "0x66cda95c"
    },
    {
      "constant": false,
      "inputs": [],
      "name": "renounceOwnership",
      "outputs": [],
      "payable": false,
      "stateMutability": "nonpayable",
      "type": "function",
      "signature": "0x715018a6"
    },
    {
      "constant": false,
      "inputs": [
        {
          "name": "account",
          "type": "address"
        }
      ],
      "name": "addDistributor",
      "outputs": [],
      "payable": false,
      "stateMutability": "nonpayable",
      "type": "function",
      "signature": "0x7250e224"
    },
    {
      "constant": true,
      "inputs": [],
      "name": "owner",
      "outputs": [
        {
          "name": "",
          "type": "address"
        }
      ],
      "payable": false,
      "stateMutability": "view",
      "type": "function",
      "signature": "0x8da5cb5b"
    },
    {
      "constant": true,
      "inputs": [
        {
          "name": "account",
          "type": "address"
        }
      ],
      "name": "isDistributor",
      "outputs": [
        {
          "name": "",
          "type": "bool"
        }
      ],
      "payable": false,
      "stateMutability": "view",
      "type": "function",
      "signature": "0x8f0c86fa"
    },
    {
      "constant": true,
      "inputs": [],
      "name": "isOwner",
      "outputs": [
        {
          "name": "",
          "type": "bool"
        }
      ],
      "payable": false,
      "stateMutability": "view",
      "type": "function",
      "signature": "0x8f32d59b"
    },
    {
      "constant": false,
      "inputs": [],
      "name": "renounceAluminumProducer",
      "outputs": [],
      "payable": false,
      "stateMutability": "nonpayable",
      "type": "function",
      "signature": "0xb5dbc212"
    },
    {
      "constant": false,
      "inputs": [
        {
          "name": "newOwner",
          "type": "address"
        }
      ],
      "name": "transferOwnership",
      "outputs": [],
      "payable": false,
      "stateMutability": "nonpayable",
      "type": "function",
      "signature": "0xf2fde38b"
    },
    {
      "inputs": [],
      "payable": true,
      "stateMutability": "payable",
      "type": "constructor",
      "signature": "constructor"
    },
    {
      "anonymous": false,
      "inputs": [
        {
          "indexed": false,
          "name": "dna",
          "type": "uint256"
        },
        {
          "indexed": false,
          "name": "emiter",
          "type": "address"
        }
      ],
      "name": "Collected",
      "type": "event",
      "signature": "0x754581136a3c2ab51aca2d58c0aaf816bbac838f0a9a700f866665de57bc9091"
    },
    {
      "anonymous": false,
      "inputs": [
        {
          "indexed": false,
          "name": "dna",
          "type": "uint256"
        },
        {
          "indexed": false,
          "name": "emiter",
          "type": "address"
        }
      ],
      "name": "Processed",
      "type": "event",
      "signature": "0x86a9fd0241dd7d84eb1203528b8f8827adf43f721495afbbcc8f3d01d25e00b9"
    },
    {
      "anonymous": false,
      "inputs": [
        {
          "indexed": false,
          "name": "dna",
          "type": "uint256"
        },
        {
          "indexed": false,
          "name": "emiter",
          "type": "address"
        }
      ],
      "name": "Packed",
      "type": "event",
      "signature": "0x808581d600d3c2d89b22159b03fea1400d722bba3ec46c85e5ade159f6fb8169"
    },
    {
      "anonymous": false,
      "inputs": [
        {
          "indexed": false,
          "name": "dna",
          "type": "uint256"
        },
        {
          "indexed": false,
          "name": "emiter",
          "type": "address"
        },
        {
          "indexed": false,
          "name": "price",
          "type": "uint256"
        }
      ],
      "name": "ForSaleToDistributor",
      "type": "event",
      "signature": "0xbe55594d1a1eedd30526362a86d14d6db60ca1bb7557e32d2a9ef904f1a71296"
    },
    {
      "anonymous": false,
      "inputs": [
        {
          "indexed": false,
          "name": "dna",
          "type": "uint256"
        },
        {
          "indexed": false,
          "name": "emiter",
          "type": "address"
        }
      ],
      "name": "SoldToDistributor",
      "type": "event",
      "signature": "0xc0fd849215106d6dd9cfcc27ba962518764ef3fb358c372bb674c52d02e6d42b"
    },
    {
      "anonymous": false,
      "inputs": [
        {
          "indexed": false,
          "name": "dna",
          "type": "uint256"
        },
        {
          "indexed": false,
          "name": "emiter",
          "type": "address"
        }
      ],
      "name": "ShippedToDistributor",
      "type": "event",
      "signature": "0x0286084355e9a81800b7148bc53bb820f41becf1122eb74b28a3e9f8e40bd4f3"
    },
    {
      "anonymous": false,
      "inputs": [
        {
          "indexed": false,
          "name": "dna",
          "type": "uint256"
        },
        {
          "indexed": false,
          "name": "emiter",
          "type": "address"
        }
      ],
      "name": "ReceivedForDistributor",
      "type": "event",
      "signature": "0x3c8dcc3732ed7437076f72f34248eb4b5c1350f01bc6fbab765358b6ce7cdc99"
    },
    {
      "anonymous": false,
      "inputs": [
        {
          "indexed": false,
          "name": "dna",
          "type": "uint256"
        },
        {
          "indexed": false,
          "name": "emiter",
          "type": "address"
        }
      ],
      "name": "PurchasedForDistributor",
      "type": "event",
      "signature": "0x295be84f80f0aa5da70fb4c16e3750a986075d02b1e92314b49f64faefaf5337"
    },
    {
      "anonymous": false,
      "inputs": [
        {
          "indexed": false,
          "name": "dna",
          "type": "uint256"
        },
        {
          "indexed": false,
          "name": "emiter",
          "type": "address"
        },
        {
          "indexed": false,
          "name": "price",
          "type": "uint256"
        }
      ],
      "name": "ForSaleToManufacturer",
      "type": "event",
      "signature": "0x173103ac314c6bba1213e759852f8ad5cd98a3daca8e288bf8c6306809e2dee6"
    },
    {
      "anonymous": false,
      "inputs": [
        {
          "indexed": false,
          "name": "dna",
          "type": "uint256"
        },
        {
          "indexed": false,
          "name": "emiter",
          "type": "address"
        }
      ],
      "name": "SoldToManufacturer",
      "type": "event",
      "signature": "0xae2701e33563c8aa0a1a48726d289e7db59d43e195c9df1aa20ff2009ad0552c"
    },
    {
      "anonymous": false,
      "inputs": [
        {
          "indexed": false,
          "name": "dna",
          "type": "uint256"
        },
        {
          "indexed": false,
          "name": "emiter",
          "type": "address"
        }
      ],
      "name": "ShippedToManufacturer",
      "type": "event",
      "signature": "0xbf143c0674e7fb92aff5ad96079c5e72f6759264eeba5aac92a6e4c4ad4301f2"
    },
    {
      "anonymous": false,
      "inputs": [
        {
          "indexed": false,
          "name": "dna",
          "type": "uint256"
        },
        {
          "indexed": false,
          "name": "emiter",
          "type": "address"
        }
      ],
      "name": "ReceivedForManufacturer",
      "type": "event",
      "signature": "0x640956cfa4bf6345206a488aa8bd79cf24a1585280666a0ca690141e8f156c0b"
    },
    {
      "anonymous": false,
      "inputs": [
        {
          "indexed": false,
          "name": "dna",
          "type": "uint256"
        },
        {
          "indexed": false,
          "name": "emiter",
          "type": "address"
        }
      ],
      "name": "PurchasedForManufacturer",
      "type": "event",
      "signature": "0x996231d6a56b3466218243d1bb29c9fd72d4649d382ffcf1f4cf48c1a369967e"
    },
    {
      "anonymous": false,
      "inputs": [
        {
          "indexed": true,
          "name": "account",
          "type": "address"
        }
      ],
      "name": "AutoManufacturerAdded",
      "type": "event",
      "signature": "0x9d355864203316202e9acf43dfd3faf16d16f5ad5e8a9549a7cf2235247c18e9"
    },
    {
      "anonymous": false,
      "inputs": [
        {
          "indexed": true,
          "name": "account",
          "type": "address"
        }
      ],
      "name": "AutoManufacturerRemoved",
      "type": "event",
      "signature": "0xd512b87127aca7f51d354bd2b2d5e94bed88ecb2d195c722a52ca62120a725db"
    },
    {
      "anonymous": false,
      "inputs": [
        {
          "indexed": true,
          "name": "account",
          "type": "address"
        }
      ],
      "name": "DistributorAdded",
      "type": "event",
      "signature": "0xddbf200aa634dc3fb81cfd68583dd1040d1c751d335e1d86b631bde3e977fea8"
    },
    {
      "anonymous": false,
      "inputs": [
        {
          "indexed": true,
          "name": "account",
          "type": "address"
        }
      ],
      "name": "DistributorRemoved",
      "type": "event",
      "signature": "0x126174f6cf49c81cdb4a9214c6b8f037bef55b4ec31e4fc776cea2a1c8a88d59"
    },
    {
      "anonymous": false,
      "inputs": [
        {
          "indexed": true,
          "name": "account",
          "type": "address"
        }
      ],
      "name": "AluminumProducerAdded",
      "type": "event",
      "signature": "0xa5e4b3b8add4feb7e325358e5031d88542781bb3b89f8acdf25b3849958847d0"
    },
    {
      "anonymous": false,
      "inputs": [
        {
          "indexed": true,
          "name": "account",
          "type": "address"
        }
      ],
      "name": "AluminumProducerRemoved",
      "type": "event",
      "signature": "0x60317d9a39f73b49d177ea56cdb9da49f2f964742fa0b5760cfe6c87f73d31b1"
    },
    {
      "anonymous": false,
      "inputs": [
        {
          "indexed": true,
          "name": "oldOwner",
          "type": "address"
        },
        {
          "indexed": true,
          "name": "newOwner",
          "type": "address"
        }
      ],
      "name": "TransferOwnership",
      "type": "event",
      "signature": "0x5c486528ec3e3f0ea91181cff8116f02bfa350e03b8b6f12e00765adbb5af85c"
    },
    {
      "constant": false,
      "inputs": [],
      "name": "kill",
      "outputs": [],
      "payable": false,
      "stateMutability": "nonpayable",
      "type": "function",
      "signature": "0x41c0e1b5"
    },
    {
      "constant": false,
      "inputs": [
        {
          "name": "_dna",
          "type": "uint256"
        },
        {
          "name": "_originAluminumProducerID",
          "type": "address"
        },
        {
          "name": "_originAluminumProducerName",
          "type": "string"
        },
        {
          "name": "_originAluminumProducerInformation",
          "type": "string"
        },
        {
          "name": "_originAluminumProducerLatitude",
          "type": "string"
        },
        {
          "name": "_originAluminumProducerLongitude",
          "type": "string"
        },
        {
          "name": "_productNotes",
          "type": "string"
        }
      ],
      "name": "collectItem",
      "outputs": [],
      "payable": false,
      "stateMutability": "nonpayable",
      "type": "function",
      "signature": "0x60d18814"
    },
    {
      "constant": false,
      "inputs": [
        {
          "name": "_dna",
          "type": "uint256"
        }
      ],
      "name": "processItem",
      "outputs": [],
      "payable": false,
      "stateMutability": "nonpayable",
      "type": "function",
      "signature": "0x49dae766"
    },
    {
      "constant": false,
      "inputs": [
        {
          "name": "_dna",
          "type": "uint256"
        }
      ],
      "name": "packItem",
      "outputs": [],
      "payable": false,
      "stateMutability": "nonpayable",
      "type": "function",
      "signature": "0xf30fc480"
    },
    {
      "constant": false,
      "inputs": [
        {
          "name": "_dna",
          "type": "uint256"
        },
        {
          "name": "_price",
          "type": "uint256"
        }
      ],
      "name": "sellItemToDistributor",
      "outputs": [],
      "payable": false,
      "stateMutability": "nonpayable",
      "type": "function",
      "signature": "0xd404eaf1"
    },
    {
      "constant": false,
      "inputs": [
        {
          "name": "_dna",
          "type": "uint256"
        }
      ],
      "name": "buyItemDistributor",
      "outputs": [],
      "payable": true,
      "stateMutability": "payable",
      "type": "function",
      "signature": "0x390bec9c"
    },
    {
      "constant": false,
      "inputs": [
        {
          "name": "_dna",
          "type": "uint256"
        }
      ],
      "name": "shipItemDistributor",
      "outputs": [],
      "payable": false,
      "stateMutability": "nonpayable",
      "type": "function",
      "signature": "0x0f662f8a"
    },
    {
      "constant": false,
      "inputs": [
        {
          "name": "_dna",
          "type": "uint256"
        }
      ],
      "name": "receiveItemDistributor",
      "outputs": [],
      "payable": false,
      "stateMutability": "nonpayable",
      "type": "function",
      "signature": "0xb034ef29"
    },
    {
      "constant": false,
      "inputs": [
        {
          "name": "_dna",
          "type": "uint256"
        }
      ],
      "name": "purchaseItemDistributor",
      "outputs": [],
      "payable": false,
      "stateMutability": "nonpayable",
      "type": "function",
      "signature": "0x25e982b0"
    },
    {
      "constant": false,
      "inputs": [
        {
          "name": "_dna",
          "type": "uint256"
        },
        {
          "name": "_price",
          "type": "uint256"
        }
      ],
      "name": "sellItemToManufacturer",
      "outputs": [],
      "payable": false,
      "stateMutability": "nonpayable",
      "type": "function",
      "signature": "0xea94da2e"
    },
    {
      "constant": false,
      "inputs": [
        {
          "name": "_dna",
          "type": "uint256"
        }
      ],
      "name": "buyItemManufacturer",
      "outputs": [],
      "payable": true,
      "stateMutability": "payable",
      "type": "function",
      "signature": "0x8e2c7849"
    },
    {
      "constant": false,
      "inputs": [
        {
          "name": "_dna",
          "type": "uint256"
        }
      ],
      "name": "shipItemManufacturer",
      "outputs": [],
      "payable": false,
      "stateMutability": "nonpayable",
      "type": "function",
      "signature": "0x16f94cb2"
    },
    {
      "constant": false,
      "inputs": [
        {
          "name": "_dna",
          "type": "uint256"
        }
      ],
      "name": "receiveItemManufacturer",
      "outputs": [],
      "payable": false,
      "stateMutability": "nonpayable",
      "type": "function",
      "signature": "0xa7792c7f"
    },
    {
      "constant": false,
      "inputs": [
        {
          "name": "_dna",
          "type": "uint256"
        }
      ],
      "name": "purchaseItemManufacturer",
      "outputs": [],
      "payable": false,
      "stateMutability": "nonpayable",
      "type": "function",
      "signature": "0x61cec3a3"
    },
    {
      "constant": true,
      "inputs": [
        {
          "name": "_dna",
          "type": "uint256"
        }
      ],
      "name": "fetchItemBufferPublic",
      "outputs": [
        {
          "name": "itemSKU",
          "type": "uint256"
        },
        {
          "name": "itemADN",
          "type": "uint256"
        },
        {
          "name": "ownerID",
          "type": "address"
        },
        {
          "name": "originAluminumProducerID",
          "type": "address"
        },
        {
          "name": "originAluminumProducerName",
          "type": "string"
        },
        {
          "name": "originAluminumProducerInformation",
          "type": "string"
        },
        {
          "name": "originAluminumProducerLatitude",
          "type": "string"
        },
        {
          "name": "originAluminumProducerLongitude",
          "type": "string"
        },
        {
          "name": "itemState",
          "type": "uint8"
        },
        {
          "name": "productPrice",
          "type": "uint256"
        },
        {
          "name": "distributorID",
          "type": "address"
        }
      ],
      "payable": false,
      "stateMutability": "view",
      "type": "function",
      "signature": "0x451816ca"
    },
    {
      "constant": true,
      "inputs": [
        {
          "name": "_dna",
          "type": "uint256"
        }
      ],
      "name": "fetchItemBufferForDistributor",
      "outputs": [
        {
          "name": "itemSKU",
          "type": "uint256"
        },
        {
          "name": "itemADN",
          "type": "uint256"
        },
        {
          "name": "ownerID",
          "type": "address"
        },
        {
          "name": "originAluminumProducerID",
          "type": "address"
        },
        {
          "name": "originAluminumProducerName",
          "type": "string"
        },
        {
          "name": "originAluminumProducerInformation",
          "type": "string"
        },
        {
          "name": "originAluminumProducerLatitude",
          "type": "string"
        },
        {
          "name": "originAluminumProducerLongitude",
          "type": "string"
        },
        {
          "name": "productNotes",
          "type": "string"
        },
        {
          "name": "itemState",
          "type": "uint8"
        }
      ],
      "payable": false,
      "stateMutability": "view",
      "type": "function",
      "signature": "0xf840b588"
    },
    {
      "constant": true,
      "inputs": [
        {
          "name": "_dna",
          "type": "uint256"
        }
      ],
      "name": "fetchItemBufferForManufacturer",
      "outputs": [
        {
          "name": "itemSKU",
          "type": "uint256"
        },
        {
          "name": "itemADN",
          "type": "uint256"
        },
        {
          "name": "ownerID",
          "type": "address"
        },
        {
          "name": "originAluminumProducerID",
          "type": "address"
        },
        {
          "name": "originAluminumProducerName",
          "type": "string"
        },
        {
          "name": "productNotes",
          "type": "string"
        },
        {
          "name": "distributorID",
          "type": "address"
        },
        {
          "name": "itemState",
          "type": "uint8"
        }
      ],
      "payable": false,
      "stateMutability": "view",
      "type": "function",
      "signature": "0x3977a7aa"
    }
  ],
  "bytecode": "0x6080604081905260008054600160a060020a0319163317808255600160a060020a0316917f5c486528ec3e3f0ea91181cff8116f02bfa350e03b8b6f12e00765adbb5af85c908290a36200005c3364010000000062000094810204565b6200007033640100000000620000e6810204565b620000843364010000000062000138810204565b6001600581905560045562000304565b620000af600182640100000000620040b46200018a82021704565b604051600160a060020a038216907fa5e4b3b8add4feb7e325358e5031d88542781bb3b89f8acdf25b3849958847d090600090a250565b62000101600282640100000000620040b46200018a82021704565b604051600160a060020a038216907fddbf200aa634dc3fb81cfd68583dd1040d1c751d335e1d86b631bde3e977fea890600090a250565b62000153600382640100000000620040b46200018a82021704565b604051600160a060020a038216907f9d355864203316202e9acf43dfd3faf16d16f5ad5e8a9549a7cf2235247c18e990600090a250565b600160a060020a0381161515620001ed576040517f08c379a000000000000000000000000000000000000000000000000000000000815260040180806020018281038252602d815260200180620049e4602d913960400191505060405180910390fd5b6200020282826401000000006200027f810204565b156200025a576040517f08c379a000000000000000000000000000000000000000000000000000000000815260040180806020018281038252603f81526020018062004a3e603f913960400191505060405180910390fd5b600160a060020a0316600090815260209190915260409020805460ff19166001179055565b6000600160a060020a0382161515620002e4576040517f08c379a000000000000000000000000000000000000000000000000000000000815260040180806020018281038252602d81526020018062004a11602d913960400191505060405180910390fd5b50600160a060020a03166000908152602091909152604090205460ff1690565b6146d080620003146000396000f3fe6080604052600436106101ea576000357c01000000000000000000000000000000000000000000000000000000009004806366cda95c11610114578063a7792c7f116100b2578063ea94da2e11610081578063ea94da2e14610c19578063f2fde38b14610c49578063f30fc48014610c7c578063f840b58814610ca6576101ea565b8063a7792c7f14610b80578063b034ef2914610baa578063b5dbc21214610bd4578063d404eaf114610be9576101ea565b80638da5cb5b116100ee5780638da5cb5b14610aea5780638e2c784914610b1b5780638f0c86fa14610b385780638f32d59b14610b6b576101ea565b806366cda95c14610a8d578063715018a614610aa25780637250e22414610ab7576101ea565b80633977a7aa1161018c5780635a0679d31161015b5780635a0679d31461073757806360d188141461076a57806361cec3a314610a4e578063644241db14610a78576101ea565b80633977a7aa1461033957806341c0e1b5146104af578063451816ca146104c457806349dae7661461070d576101ea565b806316f94cb2116101c857806316f94cb21461028157806325e982b0146102ab5780633025e875146102d5578063390bec9c1461031c576101ea565b80630bd83936146101ef5780630e746c3a146102245780630f662f8a14610257575b600080fd5b3480156101fb57600080fd5b506102226004803603602081101561021257600080fd5b5035600160a060020a0316610eec565b005b34801561023057600080fd5b506102226004803603602081101561024757600080fd5b5035600160a060020a0316610f41565b34801561026357600080fd5b506102226004803603602081101561027a57600080fd5b5035610f93565b34801561028d57600080fd5b50610222600480360360208110156102a457600080fd5b50356111d0565b3480156102b757600080fd5b50610222600480360360208110156102ce57600080fd5b50356113d6565b3480156102e157600080fd5b50610308600480360360208110156102f857600080fd5b5035600160a060020a03166115dc565b604080519115158252519081900360200190f35b6102226004803603602081101561033257600080fd5b50356115f5565b34801561034557600080fd5b506103636004803603602081101561035c57600080fd5b50356118b5565b6040518089815260200188815260200187600160a060020a0316600160a060020a0316815260200186600160a060020a0316600160a060020a03168152602001806020018060200185600160a060020a0316600160a060020a0316815260200184600c8111156103cf57fe5b60ff168152602001838103835287818151815260200191508051906020019080838360005b8381101561040c5781810151838201526020016103f4565b50505050905090810190601f1680156104395780820380516001836020036101000a031916815260200191505b50838103825286518152865160209182019188019080838360005b8381101561046c578181015183820152602001610454565b50505050905090810190601f1680156104995780820380516001836020036101000a031916815260200191505b509a505050505050505050505060405180910390f35b3480156104bb57600080fd5b50610222611d5d565b3480156104d057600080fd5b506104ee600480360360208110156104e757600080fd5b5035611e47565b604051808c81526020018b81526020018a600160a060020a0316600160a060020a0316815260200189600160a060020a0316600160a060020a031681526020018060200180602001806020018060200188600c81111561054a57fe5b60ff16815260200187815260200186600160a060020a0316600160a060020a0316815260200185810385528c818151815260200191508051906020019080838360005b838110156105a557818101518382015260200161058d565b50505050905090810190601f1680156105d25780820380516001836020036101000a031916815260200191505b5085810384528b5181528b516020918201918d019080838360005b838110156106055781810151838201526020016105ed565b50505050905090810190601f1680156106325780820380516001836020036101000a031916815260200191505b5085810383528a5181528a516020918201918c019080838360005b8381101561066557818101518382015260200161064d565b50505050905090810190601f1680156106925780820380516001836020036101000a031916815260200191505b5085810382528951815289516020918201918b019080838360005b838110156106c55781810151838201526020016106ad565b50505050905090810190601f1680156106f25780820380516001836020036101000a031916815260200191505b509f5050505050505050505050505050505060405180910390f35b34801561071957600080fd5b506102226004803603602081101561073057600080fd5b5035612318565b34801561074357600080fd5b506103086004803603602081101561075a57600080fd5b5035600160a060020a031661252e565b34801561077657600080fd5b50610222600480360360e081101561078d57600080fd5b813591600160a060020a03602082013516918101906060810160408201356401000000008111156107bd57600080fd5b8201836020820111156107cf57600080fd5b803590602001918460018302840111640100000000831117156107f157600080fd5b91908080601f016020809104026020016040519081016040528093929190818152602001838380828437600092019190915250929594936020810193503591505064010000000081111561084457600080fd5b82018360208201111561085657600080fd5b8035906020019184600183028401116401000000008311171561087857600080fd5b91908080601f01602080910402602001604051908101604052809392919081815260200183838082843760009201919091525092959493602081019350359150506401000000008111156108cb57600080fd5b8201836020820111156108dd57600080fd5b803590602001918460018302840111640100000000831117156108ff57600080fd5b91908080601f016020809104026020016040519081016040528093929190818152602001838380828437600092019190915250929594936020810193503591505064010000000081111561095257600080fd5b82018360208201111561096457600080fd5b8035906020019184600183028401116401000000008311171561098657600080fd5b91908080601f01602080910402602001604051908101604052809392919081815260200183838082843760009201919091525092959493602081019350359150506401000000008111156109d957600080fd5b8201836020820111156109eb57600080fd5b80359060200191846001830284011164010000000083111715610a0d57600080fd5b91908080601f016020809104026020016040519081016040528093929190818152602001838380828437600092019190915250929550612541945050505050565b348015610a5a57600080fd5b5061022260048036036020811015610a7157600080fd5b5035612822565b348015610a8457600080fd5b50610222612a28565b348015610a9957600080fd5b50610222612a33565b348015610aae57600080fd5b50610222612a3c565b348015610ac357600080fd5b5061022260048036036020811015610ada57600080fd5b5035600160a060020a0316612af1565b348015610af657600080fd5b50610aff612b43565b60408051600160a060020a039092168252519081900360200190f35b61022260048036036020811015610b3157600080fd5b5035612b53565b348015610b4457600080fd5b5061030860048036036020811015610b5b57600080fd5b5035600160a060020a0316612e27565b348015610b7757600080fd5b50610308612e3a565b348015610b8c57600080fd5b5061022260048036036020811015610ba357600080fd5b5035612e4b565b348015610bb657600080fd5b5061022260048036036020811015610bcd57600080fd5b503561304f565b348015610be057600080fd5b50610222613254565b348015610bf557600080fd5b5061022260048036036040811015610c0c57600080fd5b508035906020013561325d565b348015610c2557600080fd5b5061022260048036036040811015610c3c57600080fd5b508035906020013561347f565b348015610c5557600080fd5b5061022260048036036020811015610c6c57600080fd5b5035600160a060020a0316613690565b348015610c8857600080fd5b5061022260048036036020811015610c9f57600080fd5b50356136f7565b348015610cb257600080fd5b50610cd060048036036020811015610cc957600080fd5b503561390e565b604051808b81526020018a815260200189600160a060020a0316600160a060020a0316815260200188600160a060020a0316600160a060020a03168152602001806020018060200180602001806020018060200187600c811115610d3057fe5b60ff16815260200186810386528c818151815260200191508051906020019080838360005b83811015610d6d578181015183820152602001610d55565b50505050905090810190601f168015610d9a5780820380516001836020036101000a031916815260200191505b5086810385528b5181528b516020918201918d019080838360005b83811015610dcd578181015183820152602001610db5565b50505050905090810190601f168015610dfa5780820380516001836020036101000a031916815260200191505b5086810384528a5181528a516020918201918c019080838360005b83811015610e2d578181015183820152602001610e15565b50505050905090810190601f168015610e5a5780820380516001836020036101000a031916815260200191505b5086810383528951815289516020918201918b019080838360005b83811015610e8d578181015183820152602001610e75565b50505050905090810190601f168015610eba5780820380516001836020036101000a031916815260200191505b5086810382528851815288516020918201918a01908083836000838110156106c55781810151838201526020016106ad565b610ef5336115dc565b1515610f355760405160e560020a62461bcd0281526004018080602001828103825260358152602001806145d06035913960400191505060405180910390fd5b610f3e81613dd0565b50565b610f4a3361252e565b1515610f8a5760405160e560020a62461bcd02815260040180806020018281038252603581526020018061455c6035913960400191505060405180910390fd5b610f3e81613e18565b610f9c336115dc565b1515610fdc5760405160e560020a62461bcd0281526004018080602001828103825260358152602001806145d06035913960400191505060405180910390fd5b600081815260066020526040902060020154819060ff1615156110335760405160e560020a62461bcd0281526004018080602001828103825260228152602001806143a76022913960400191505060405180910390fd5b600082815260066020526040902060030154600160a060020a0316338114611093576040805160e560020a62461bcd028152602060048201526015602482015260008051602061462e833981519152604482015290519081900360640190fd5b8260046060604051908101604052806025815260200161441d6025913981600c8111156110bc57fe5b6000848152600660205260409020600b015460ff16600c8111156110dc57fe5b82911461116a5760405160e560020a62461bcd0281526004018080602001828103825283818151815260200191508051906020019080838360005b8381101561112f578181015183820152602001611117565b50505050905090810190601f16801561115c5780820380516001836020036101000a031916815260200191505b509250505060405180910390fd5b506000868152600660205260409020600b0180546005919060ff191660018302179055506040805187815233602082015281517f0286084355e9a81800b7148bc53bb820f41becf1122eb74b28a3e9f8e40bd4f3929181900390910190a1505050505050565b6111d933612e27565b15156112195760405160e560020a62461bcd02815260040180806020018281038252602f815260200180614676602f913960400191505060405180910390fd5b600081815260066020526040902060020154819060ff1615156112705760405160e560020a62461bcd0281526004018080602001828103825260228152602001806143a76022913960400191505060405180910390fd5b6000828152600660205260409020600b01546101009004600160a060020a03163381146112d5576040805160e560020a62461bcd028152602060048201526015602482015260008051602061462e833981519152604482015290519081900360640190fd5b826009606060405190810160405280602681526020016143516026913981600c8111156112fe57fe5b6000848152600660205260409020600b015460ff16600c81111561131e57fe5b8291146113705760405160e560020a62461bcd0281526004018080602001828103825283818151815260200191508051906020019080838360008381101561112f578181015183820152602001611117565b506000868152600660205260409020600b018054600a919060ff191660018302179055506040805187815233602082015281517fbf143c0674e7fb92aff5ad96079c5e72f6759264eeba5aac92a6e4c4ad4301f2929181900390910190a1505050505050565b6113df33612e27565b151561141f5760405160e560020a62461bcd02815260040180806020018281038252602f815260200180614676602f913960400191505060405180910390fd5b600081815260066020526040902060020154819060ff1615156114765760405160e560020a62461bcd0281526004018080602001828103825260228152602001806143a76022913960400191505060405180910390fd5b6000828152600660205260409020600201546101009004600160a060020a03163381146114db576040805160e560020a62461bcd028152602060048201526015602482015260008051602061462e833981519152604482015290519081900360640190fd5b826006606060405190810160405280602a8152602001614442602a913981600c81111561150457fe5b6000848152600660205260409020600b015460ff16600c81111561152457fe5b8291146115765760405160e560020a62461bcd0281526004018080602001828103825283818151815260200191508051906020019080838360008381101561112f578181015183820152602001611117565b506000868152600660205260409020600b0180546007919060ff191660018302179055506040805187815233602082015281517f295be84f80f0aa5da70fb4c16e3750a986075d02b1e92314b49f64faefaf5337929181900390910190a1505050505050565b60006115ef60018363ffffffff613e6016565b92915050565b6115fe33612e27565b151561163e5760405160e560020a62461bcd02815260040180806020018281038252602f815260200180614676602f913960400191505060405180910390fd5b600081815260066020526040902060020154819060ff1615156116955760405160e560020a62461bcd0281526004018080602001828103825260228152602001806143a76022913960400191505060405180910390fd5b816003606060405190810160405280602881526020016145346028913981600c8111156116be57fe5b6000848152600660205260409020600b015460ff16600c8111156116de57fe5b8291146117305760405160e560020a62461bcd0281526004018080602001828103825283818151815260200191508051906020019080838360008381101561112f578181015183820152602001611117565b506000858152600660205260409020600a01543481111561179b576040805160e560020a62461bcd02815260206004820152601a60248201527f5061696420616d6f756e74206e6f742073756666696369656e74000000000000604482015290519081900360640190fd5b600086815260066020526040808220600281018054610100330274ffffffffffffffffffffffffffffffffffffffff00199182168117909255600b830180546004921690921760ff19161790556003810154600a9091015491518993600160a060020a039092169280156108fc0292909190818181858888f1935050505015801561182a573d6000803e3d6000fd5b506040805188815233602082015281517fc0fd849215106d6dd9cfcc27ba962518764ef3fb358c372bb674c52d02e6d42b929181900390910190a1600081815260066020526040808220600a0154905190913483900391339183156108fc02918491818181858888f193505050501580156118a9573d6000803e3d6000fd5b50505050505050505050565b600081815260066020526040812060020154819081908190606090819083908190899060ff16151561191b5760405160e560020a62461bcd0281526004018080602001828103825260228152602001806143a76022913960400191505060405180910390fd5b611923614222565b60008b81526006602090815260409182902082516101e081018452815481526001808301548285015260028084015460ff811615158488015261010090819004600160a060020a03908116606086015260038601541660808501526004850180548851948116159092026000190190911691909104601f81018690048602830186019096528582529194929360a086019391929190830182828015611a095780601f106119de57610100808354040283529160200191611a09565b820191906000526020600020905b8154815290600101906020018083116119ec57829003601f168201915b505050918352505060058201805460408051602060026001851615610100026000190190941693909304601f8101849004840282018401909252818152938201939291830182828015611a9d5780601f10611a7257610100808354040283529160200191611a9d565b820191906000526020600020905b815481529060010190602001808311611a8057829003601f168201915b505050918352505060068201805460408051602060026001851615610100026000190190941693909304601f8101849004840282018401909252818152938201939291830182828015611b315780601f10611b0657610100808354040283529160200191611b31565b820191906000526020600020905b815481529060010190602001808311611b1457829003601f168201915b505050918352505060078201805460408051602060026001851615610100026000190190941693909304601f8101849004840282018401909252818152938201939291830182828015611bc55780601f10611b9a57610100808354040283529160200191611bc5565b820191906000526020600020905b815481529060010190602001808311611ba857829003601f168201915b5050509183525050600882015460208083019190915260098301805460408051601f60026000196101006001871615020190941693909304928301859004850281018501825282815294019392830182828015611c635780601f10611c3857610100808354040283529160200191611c63565b820191906000526020600020905b815481529060010190602001808311611c4657829003601f168201915b5050509183525050600a8201546020820152600b82015460409091019060ff16600c811115611c8e57fe5b600c811115611c9957fe5b8152602001600b820160019054906101000a9004600160a060020a0316600160a060020a0316600160a060020a03168152602001600c820160009054906101000a9004600160a060020a0316600160a060020a0316600160a060020a0316815250509050806000015199508060200151985080606001519750806080015196508060a0015195508061014001519450806101a00151935080610180015192508989898989898989995099509950995099509950995099505050919395975091939597565b611d65612e3a565b1515611dbb576040805160e560020a62461bcd02815260206004820152601760248201527f43616c6c6572206973206e6f7420746865206f776e6572000000000000000000604482015290519081900360640190fd5b30600160a060020a0316638da5cb5b6040518163ffffffff167c010000000000000000000000000000000000000000000000000000000002815260040160206040518083038186803b158015611e1057600080fd5b505afa158015611e24573d6000803e3d6000fd5b505050506040513d6020811015611e3a57600080fd5b5051600160a060020a0316ff5b6000818152600660205260408120600201548190819081906060908190819081908590819081908c9060ff161515611eb35760405160e560020a62461bcd0281526004018080602001828103825260228152602001806143a76022913960400191505060405180910390fd5b611ebb614222565b60008e81526006602090815260409182902082516101e081018452815481526001808301548285015260028084015460ff811615158488015261010090819004600160a060020a03908116606086015260038601541660808501526004850180548851948116159092026000190190911691909104601f81018690048602830186019096528582529194929360a086019391929190830182828015611fa15780601f10611f7657610100808354040283529160200191611fa1565b820191906000526020600020905b815481529060010190602001808311611f8457829003601f168201915b505050918352505060058201805460408051602060026001851615610100026000190190941693909304601f81018490048402820184019092528181529382019392918301828280156120355780601f1061200a57610100808354040283529160200191612035565b820191906000526020600020905b81548152906001019060200180831161201857829003601f168201915b505050918352505060068201805460408051602060026001851615610100026000190190941693909304601f81018490048402820184019092528181529382019392918301828280156120c95780601f1061209e576101008083540402835291602001916120c9565b820191906000526020600020905b8154815290600101906020018083116120ac57829003601f168201915b505050918352505060078201805460408051602060026001851615610100026000190190941693909304601f810184900484028201840190925281815293820193929183018282801561215d5780601f106121325761010080835404028352916020019161215d565b820191906000526020600020905b81548152906001019060200180831161214057829003601f168201915b5050509183525050600882015460208083019190915260098301805460408051601f600260001961010060018716150201909416939093049283018590048502810185018252828152940193928301828280156121fb5780601f106121d0576101008083540402835291602001916121fb565b820191906000526020600020905b8154815290600101906020018083116121de57829003601f168201915b5050509183525050600a8201546020820152600b82015460409091019060ff16600c81111561222657fe5b600c81111561223157fe5b8152602001600b820160019054906101000a9004600160a060020a0316600160a060020a0316600160a060020a03168152602001600c820160009054906101000a9004600160a060020a0316600160a060020a0316600160a060020a031681525050905080600001519c5080602001519b5080606001519a50806080015199508060a0015198508060c0015197508060e001519650806101000151955080610180015194508061016001519350806101a0015192508c8c8c8c8c8c8c8c8c8c8c9c509c509c509c509c509c509c509c509c509c509c50505091939597999b90929496989a50565b612321336115dc565b15156123615760405160e560020a62461bcd0281526004018080602001828103825260358152602001806145d06035913960400191505060405180910390fd5b6000818152600660205260409020600201546101009004600160a060020a03163381146123c6576040805160e560020a62461bcd028152602060048201526015602482015260008051602061462e833981519152604482015290519081900360640190fd5b600082815260066020526040902060020154829060ff16151561241d5760405160e560020a62461bcd0281526004018080602001828103825260228152602001806143a76022913960400191505060405180910390fd5b60408051808201909152601d81527f416c756d696e756d206173736574206e6f7420636f6c6c65637465642e00000060208201528390600090816000848152600660205260409020600b015460ff16600c81111561247757fe5b8291146124c95760405160e560020a62461bcd0281526004018080602001828103825283818151815260200191508051906020019080838360008381101561112f578181015183820152602001611117565b506000868152600660205260409020600b0180546001919060ff1916828002179055506040805187815233602082015281517f86a9fd0241dd7d84eb1203528b8f8827adf43f721495afbbcc8f3d01d25e00b9929181900390910190a1505050505050565b60006115ef60038363ffffffff613e6016565b61254a336115dc565b151561258a5760405160e560020a62461bcd0281526004018080602001828103825260358152602001806145d06035913960400191505060405180910390fd5b612592614222565b6101e060405190810160405280600554815260200189815260200160011515815260200188600160a060020a0316815260200188600160a060020a031681526020018781526020018681526020018581526020018481526020016005548a018152602001838152602001600081526020016000600c81111561261057fe5b81526000602080830182905260409283018290528b825260068152908290208351815583820151600182015591830151600283018054606086015160ff199091169215159290921774ffffffffffffffffffffffffffffffffffffffff001916610100600160a060020a0393841602179055608084015160038401805473ffffffffffffffffffffffffffffffffffffffff19169190921617905560a0830151805193945084936126c792600485019201906142b8565b5060c082015180516126e39160058401916020909101906142b8565b5060e082015180516126ff9160068401916020909101906142b8565b50610100820151805161271c9160078401916020909101906142b8565b50610120820151600882015561014082015180516127449160098401916020909101906142b8565b50610160820151600a820155610180820151600b8201805460ff1916600183600c81111561276e57fe5b02179055506101a0820151600b8201805474ffffffffffffffffffffffffffffffffffffffff001916610100600160a060020a03938416021790556101c090920151600c909101805473ffffffffffffffffffffffffffffffffffffffff1916919092161790556005805460010190556040805189815233602082015281517f754581136a3c2ab51aca2d58c0aaf816bbac838f0a9a700f866665de57bc9091929181900390910190a15050505050505050565b61282b3361252e565b151561286b5760405160e560020a62461bcd02815260040180806020018281038252603581526020018061455c6035913960400191505060405180910390fd5b600081815260066020526040902060020154819060ff1615156128c25760405160e560020a62461bcd0281526004018080602001828103825260228152602001806143a76022913960400191505060405180910390fd5b6000828152600660205260409020600201546101009004600160a060020a0316338114612927576040805160e560020a62461bcd028152602060048201526015602482015260008051602061462e833981519152604482015290519081900360640190fd5b82600b606060405190810160405280602b81526020016144dc602b913981600c81111561295057fe5b6000848152600660205260409020600b015460ff16600c81111561297057fe5b8291146129c25760405160e560020a62461bcd0281526004018080602001828103825283818151815260200191508051906020019080838360008381101561112f578181015183820152602001611117565b506000868152600660205260409020600b018054600c919060ff191660018302179055506040805187815233602082015281517f996231d6a56b3466218243d1bb29c9fd72d4649d382ffcf1f4cf48c1a369967e929181900390910190a1505050505050565b612a3133613ecc565b565b612a3133613f14565b612a44612e3a565b1515612a9a576040805160e560020a62461bcd02815260206004820152601760248201527f43616c6c6572206973206e6f7420746865206f776e6572000000000000000000604482015290519081900360640190fd5b60008054604051600160a060020a03909116907f5c486528ec3e3f0ea91181cff8116f02bfa350e03b8b6f12e00765adbb5af85c908390a36000805473ffffffffffffffffffffffffffffffffffffffff19169055565b612afa33612e27565b1515612b3a5760405160e560020a62461bcd02815260040180806020018281038252602f815260200180614676602f913960400191505060405180910390fd5b610f3e81613f5c565b600054600160a060020a03165b90565b612b5c3361252e565b1515612b9c5760405160e560020a62461bcd02815260040180806020018281038252603581526020018061455c6035913960400191505060405180910390fd5b600081815260066020526040902060020154819060ff161515612bf35760405160e560020a62461bcd0281526004018080602001828103825260228152602001806143a76022913960400191505060405180910390fd5b816008606060405190810160405280602981526020016143c96029913981600c811115612c1c57fe5b6000848152600660205260409020600b015460ff16600c811115612c3c57fe5b829114612c8e5760405160e560020a62461bcd0281526004018080602001828103825283818151815260200191508051906020019080838360008381101561112f578181015183820152602001611117565b506000858152600660205260409020600a015434811115612cf9576040805160e560020a62461bcd02815260206004820152601a60248201527f5061696420616d6f756e74206e6f742073756666696369656e74000000000000604482015290519081900360640190fd5b60008681526006602052604080822060028101805474ffffffffffffffffffffffffffffffffffffffff0019163361010081810292909217909255600c8301805473ffffffffffffffffffffffffffffffffffffffff1916909217909155600b82018054600960ff199091161790819055600a9092015492518a9491909204600160a060020a0316926108fc811502929091818181858888f19350505050158015612da8573d6000803e3d6000fd5b506040805188815233602082015281517fae2701e33563c8aa0a1a48726d289e7db59d43e195c9df1aa20ff2009ad0552c929181900390910190a1600081815260066020526040808220600a0154905190913483900391339183156108fc02918491818181858888f193505050501580156118a9573d6000803e3d6000fd5b60006115ef60028363ffffffff613e6016565b600054600160a060020a0316331490565b612e543361252e565b1515612e945760405160e560020a62461bcd02815260040180806020018281038252603581526020018061455c6035913960400191505060405180910390fd5b600081815260066020526040902060020154819060ff161515612eeb5760405160e560020a62461bcd0281526004018080602001828103825260228152602001806143a76022913960400191505060405180910390fd5b6000828152600660205260409020600201546101009004600160a060020a0316338114612f50576040805160e560020a62461bcd028152602060048201526015602482015260008051602061462e833981519152604482015290519081900360640190fd5b82600a606060405190810160405280602981526020016146056029913981600c811115612f7957fe5b6000848152600660205260409020600b015460ff16600c811115612f9957fe5b829114612feb5760405160e560020a62461bcd0281526004018080602001828103825283818151815260200191508051906020019080838360008381101561112f578181015183820152602001611117565b506000868152600660205260409020600b908101805460ff191660018302179055506040805187815233602082015281517f640956cfa4bf6345206a488aa8bd79cf24a1585280666a0ca690141e8f156c0b929181900390910190a1505050505050565b61305833612e27565b15156130985760405160e560020a62461bcd02815260040180806020018281038252602f815260200180614676602f913960400191505060405180910390fd5b600081815260066020526040902060020154819060ff1615156130ef5760405160e560020a62461bcd0281526004018080602001828103825260228152602001806143a76022913960400191505060405180910390fd5b6000828152600660205260409020600201546101009004600160a060020a0316338114613154576040805160e560020a62461bcd028152602060048201526015602482015260008051602061462e833981519152604482015290519081900360640190fd5b8260056060604051908101604052806028815260200161464e6028913981600c81111561317d57fe5b6000848152600660205260409020600b015460ff16600c81111561319d57fe5b8291146131ef5760405160e560020a62461bcd0281526004018080602001828103825283818151815260200191508051906020019080838360008381101561112f578181015183820152602001611117565b506000868152600660208190526040909120600b01805460ff191660018302179055506040805187815233602082015281517f3c8dcc3732ed7437076f72f34248eb4b5c1350f01bc6fbab765358b6ce7cdc99929181900390910190a1505050505050565b612a3133613fa4565b613266336115dc565b15156132a65760405160e560020a62461bcd0281526004018080602001828103825260358152602001806145d06035913960400191505060405180910390fd5b600082815260066020526040902060020154829060ff1615156132fd5760405160e560020a62461bcd0281526004018080602001828103825260228152602001806143a76022913960400191505060405180910390fd5b6000838152600660205260409020600201546101009004600160a060020a0316338114613362576040805160e560020a62461bcd028152602060048201526015602482015260008051602061462e833981519152604482015290519081900360640190fd5b60408051808201909152601a81527f416c756d696e756d206173736574206e6f74205061636b65642e00000000000060208201528490600290816000848152600660205260409020600b015460ff16600c8111156133bc57fe5b82911461340e5760405160e560020a62461bcd0281526004018080602001828103825283818151815260200191508051906020019080838360008381101561112f578181015183820152602001611117565b50600087815260066020908152604091829020600b8101805460ff19166003179055600a018890558151898152339181019190915280820188905290517fbe55594d1a1eedd30526362a86d14d6db60ca1bb7557e32d2a9ef904f1a71296916060908290030190a150505050505050565b61348833612e27565b15156134c85760405160e560020a62461bcd02815260040180806020018281038252602f815260200180614676602f913960400191505060405180910390fd5b600082815260066020526040902060020154829060ff16151561351f5760405160e560020a62461bcd0281526004018080602001828103825260228152602001806143a76022913960400191505060405180910390fd5b6000838152600660205260409020600201546101009004600160a060020a0316338114613584576040805160e560020a62461bcd028152602060048201526015602482015260008051602061462e833981519152604482015290519081900360640190fd5b836007606060405190810160405280602b81526020016143f2602b913981600c8111156135ad57fe5b6000848152600660205260409020600b015460ff16600c8111156135cd57fe5b82911461361f5760405160e560020a62461bcd0281526004018080602001828103825283818151815260200191508051906020019080838360008381101561112f578181015183820152602001611117565b50600087815260066020908152604091829020600b8101805460ff19166008179055600a018890558151898152339181019190915280820188905290517f173103ac314c6bba1213e759852f8ad5cd98a3daca8e288bf8c6306809e2dee6916060908290030190a150505050505050565b613698612e3a565b15156136ee576040805160e560020a62461bcd02815260206004820152601760248201527f43616c6c6572206973206e6f7420746865206f776e6572000000000000000000604482015290519081900360640190fd5b610f3e81613fec565b613700336115dc565b15156137405760405160e560020a62461bcd0281526004018080602001828103825260358152602001806145d06035913960400191505060405180910390fd5b600081815260066020526040902060020154819060ff1615156137975760405160e560020a62461bcd0281526004018080602001828103825260228152602001806143a76022913960400191505060405180910390fd5b6000828152600660205260409020600201546101009004600160a060020a03163381146137fc576040805160e560020a62461bcd028152602060048201526015602482015260008051602061462e833981519152604482015290519081900360640190fd5b60408051808201909152601d81527f416c756d696e756d206173736574206e6f742070726f6365737365642e00000060208201528390600190816000848152600660205260409020600b015460ff16600c81111561385657fe5b8291146138a85760405160e560020a62461bcd0281526004018080602001828103825283818151815260200191508051906020019080838360008381101561112f578181015183820152602001611117565b506000868152600660205260409020600b0180546002919060ff191660018302179055506040805187815233602082015281517f808581d600d3c2d89b22159b03fea1400d722bba3ec46c85e5ade159f6fb8169929181900390910190a1505050505050565b600081815260066020526040812060020154819081908190606090819081908190819086908b9060ff1615156139785760405160e560020a62461bcd0281526004018080602001828103825260228152602001806143a76022913960400191505060405180910390fd5b613980614222565b60008d81526006602090815260409182902082516101e081018452815481526001808301548285015260028084015460ff811615158488015261010090819004600160a060020a03908116606086015260038601541660808501526004850180548851948116159092026000190190911691909104601f81018690048602830186019096528582529194929360a086019391929190830182828015613a665780601f10613a3b57610100808354040283529160200191613a66565b820191906000526020600020905b815481529060010190602001808311613a4957829003601f168201915b505050918352505060058201805460408051602060026001851615610100026000190190941693909304601f8101849004840282018401909252818152938201939291830182828015613afa5780601f10613acf57610100808354040283529160200191613afa565b820191906000526020600020905b815481529060010190602001808311613add57829003601f168201915b505050918352505060068201805460408051602060026001851615610100026000190190941693909304601f8101849004840282018401909252818152938201939291830182828015613b8e5780601f10613b6357610100808354040283529160200191613b8e565b820191906000526020600020905b815481529060010190602001808311613b7157829003601f168201915b505050918352505060078201805460408051602060026001851615610100026000190190941693909304601f8101849004840282018401909252818152938201939291830182828015613c225780601f10613bf757610100808354040283529160200191613c22565b820191906000526020600020905b815481529060010190602001808311613c0557829003601f168201915b5050509183525050600882015460208083019190915260098301805460408051601f60026000196101006001871615020190941693909304928301859004850281018501825282815294019392830182828015613cc05780601f10613c9557610100808354040283529160200191613cc0565b820191906000526020600020905b815481529060010190602001808311613ca357829003601f168201915b5050509183525050600a8201546020820152600b82015460409091019060ff16600c811115613ceb57fe5b600c811115613cf657fe5b8152602001600b820160019054906101000a9004600160a060020a0316600160a060020a0316600160a060020a03168152602001600c820160009054906101000a9004600160a060020a0316600160a060020a0316600160a060020a031681525050905080600001519b5080602001519a5080606001519950806080015198508060a0015197508060c0015196508060e0015195508061010001519450806101400151935080610180015192508b8b8b8b8b8b8b8b8b8b9b509b509b509b509b509b509b509b509b509b5050509193959799509193959799565b613de160018263ffffffff6140b416565b604051600160a060020a038216907fa5e4b3b8add4feb7e325358e5031d88542781bb3b89f8acdf25b3849958847d090600090a250565b613e2960038263ffffffff6140b416565b604051600160a060020a038216907f9d355864203316202e9acf43dfd3faf16d16f5ad5e8a9549a7cf2235247c18e990600090a250565b6000600160a060020a0382161515613eac5760405160e560020a62461bcd02815260040180806020018281038252602d815260200180614507602d913960400191505060405180910390fd5b50600160a060020a03166000908152602091909152604090205460ff1690565b613edd60028263ffffffff61416c16565b604051600160a060020a038216907f126174f6cf49c81cdb4a9214c6b8f037bef55b4ec31e4fc776cea2a1c8a88d5990600090a250565b613f2560038263ffffffff61416c16565b604051600160a060020a038216907fd512b87127aca7f51d354bd2b2d5e94bed88ecb2d195c722a52ca62120a725db90600090a250565b613f6d60028263ffffffff6140b416565b604051600160a060020a038216907fddbf200aa634dc3fb81cfd68583dd1040d1c751d335e1d86b631bde3e977fea890600090a250565b613fb560018263ffffffff61416c16565b604051600160a060020a038216907f60317d9a39f73b49d177ea56cdb9da49f2f964742fa0b5760cfe6c87f73d31b190600090a250565b600160a060020a038116151561404c576040805160e560020a62461bcd02815260206004820152601060248201527f4e65772061646472657373206e756c6c00000000000000000000000000000000604482015290519081900360640190fd5b60008054604051600160a060020a03808516939216917f5c486528ec3e3f0ea91181cff8116f02bfa350e03b8b6f12e00765adbb5af85c91a36000805473ffffffffffffffffffffffffffffffffffffffff1916600160a060020a0392909216919091179055565b600160a060020a03811615156140fe5760405160e560020a62461bcd02815260040180806020018281038252602d81526020018061446c602d913960400191505060405180910390fd5b6141088282613e60565b156141475760405160e560020a62461bcd02815260040180806020018281038252603f815260200180614591603f913960400191505060405180910390fd5b600160a060020a0316600090815260209190915260409020805460ff19166001179055565b600160a060020a03811615156141b65760405160e560020a62461bcd0281526004018080602001828103825260308152602001806143776030913960400191505060405180910390fd5b6141c08282613e60565b15156142005760405160e560020a62461bcd0281526004018080602001828103825260438152602001806144996043913960600191505060405180910390fd5b600160a060020a0316600090815260209190915260409020805460ff19169055565b6101e06040519081016040528060008152602001600081526020016000151581526020016000600160a060020a031681526020016000600160a060020a03168152602001606081526020016060815260200160608152602001606081526020016000815260200160608152602001600081526020016000600c8111156142a457fe5b815260006020820181905260409091015290565b828054600181600116156101000203166002900490600052602060002090601f016020900481019282601f106142f957805160ff1916838001178555614326565b82800160010185558215614326579182015b8281111561432657825182559160200191906001019061430b565b50614332929150614336565b5090565b612b5091905b80821115614332576000815560010161433c56fe416c756d696e756d206173736574206e6f7420536f6c64546f4d616e7566616374757265722e41646472657373206163636f756e74206e756c6c20696e2066756e6374696f6e2072656d6f76652074686520726f6c65444e4120646f65736e607420657869737420696e206974656d73206d617070696e67416c756d696e756d206173736574206e6f7420466f7253616c65546f4d616e7566616374757265722e416c756d696e756d206173736574206e6f7420507572636861736564466f724469737472696275746f722e416c756d696e756d206173736574206e6f7420536f6c64546f4469737472696275746f722e416c756d696e756d206173736574206e6f74205265636569766564466f724469737472696275746f722e41646472657373206163636f756e74206e756c6c20696e2066756e6374696f6e20616464206e657720726f6c65546865206164647265737320676976656e20646f65736ec2b474206861732074686520726f6c6520696e2066756e6374696f6e2072656d6f76652074686520726f6c65416c756d696e756d206173736574206e6f74205265636569766564466f724d616e7566616374757265722e41646472657373206163636f756e74206e756c6c20696e2066756e6374696f6e206861732074686520726f6c65416c756d696e756d206173736574206e6f7420466f7253616c65546f4469737472696275746f722e546865206164647265737320646f65736ec2b474206d61746368207769746820616e79206175746f206d616e756661637475726572546865206164647265737320676976656e2068617320616c72656164792074686520726f6c6520696e2066756e6374696f6e20616464206e657720726f6c65546865206164647265737320646f65736ec2b474206d61746368207769746820616e7920616c756d696e756d2070726f6475636572416c756d696e756d206173736574206e6f742053686970706564546f4d616e7566616374757265722e43616c6c6572206e6f7420617574686f72697a65640000000000000000000000416c756d696e756d206173736574206e6f742053686970706564546f4469737472696275746f722e546865206164647265737320646f65736ec2b474206d61746368207769746820616e79206469737472696275746f72a165627a7a723058203bf4579809f15e758694dbb5c63da5c2e5a3792b023af7d8a6f2d9f5512e7aea002941646472657373206163636f756e74206e756c6c20696e2066756e6374696f6e20616464206e657720726f6c6541646472657373206163636f756e74206e756c6c20696e2066756e6374696f6e206861732074686520726f6c65546865206164647265737320676976656e2068617320616c72656164792074686520726f6c6520696e2066756e6374696f6e20616464206e657720726f6c65",
  "source": "pragma solidity ^0.5.0;\n// Import the library 'Roles'\nimport \"../aluminumcore/Ownable.sol\";\nimport \"../aluminumaccesscontrol/AluminumProducerRole.sol\";\nimport \"../aluminumaccesscontrol/DistributorRole.sol\";\nimport \"../aluminumaccesscontrol/AutoManufacturerRole.sol\";\n\n// Define a contract 'Supplychain'\ncontract SupplyChain is Ownable, AluminumProducerRole, DistributorRole, AutoManufacturerRole {\n    // Define 'owner'\n    //address owner;\n    // Define a variable called 'dna' for the metal signature (DNA)\n    uint dna;\n    // Define a variable called 'sku' for Stock Keeping Unit (SKU)\n    uint sku;\n    // Define a public mapping 'items' that maps the DNA signature to an Item.\n    mapping (uint => Item) items;\n    // Define a public mapping 'itemsHistory' that maps the ADN to an array of TxHash, \n    // that track its journey through the supply chain -- to be sent from DApp.\n    mapping (uint => string[]) itemsHistory;\n    \n    // Define enum 'State' with the following values:\n    enum State \n    { \n      Collected,                // 0\n      Processed,                // 1\n      Packed,                   // 2\n      ForSaleToDistributor,     // 3\n      SoldToDistributor,        // 4\n      ShippedToDistributor,     // 5\n      ReceivedForDistributor,   // 6\n      PurchasedForDistributor,  // 7\n      ForSaleToManufacturer,    // 8\n      SoldToManufacturer,       // 9\n      ShippedToManufacturer,    // 10\n      ReceivedForManufacturer,  // 11\n      PurchasedForManufacturer  // 12\n    }\n    \n    State constant defaultState = State.Collected;\n\n    // Define a struct 'Item' with the following fields:\n    struct Item {\n        uint    sku;                                // Stock Keeping Unit (SKU)\n        uint    dna;                                // Universal Product Code (UPC), generated by the Aluminum Producer, goes on the package, can be verified by the Auto Manufacturer\n        bool    existItem;                          // Boolean to check the existence of the item easily\n        address payable ownerID;                    // Metamask-Ethereum address of the current owner as the product moves through 12 stages\n        address payable originAluminumProducerID;   // Metamask-Ethereum address of the Farmer\n        string  originAluminumProducerName;         // Aluminum Producer Name\n        string  originAluminumProducerInformation;  // Aluminum Producer Information\n        string  originAluminumProducerLatitude;     // Aluminum Producer Latitude\n        string  originAluminumProducerLongitude;    // Aluminum Producer Longitude\n        uint    productID;                          // Product ID potentially a combination of dna + sku\n        string  productNotes;                       // Product Notes\n        uint    productPrice;                       // Product Price\n        State   itemState;                          // Product State as represented in the enum above\n        address payable distributorID;              // Metamask-Ethereum address of the Distributor\n        address payable autoManufacturerID;         // Metamask-Ethereum address of the Auto Manufacturer\n    }\n\n    // Define 12 events with the same 12 state values and accept 'dna' as input argument\n    event Collected(uint dna, address emiter);\n    event Processed(uint dna, address emiter);\n    event Packed(uint dna, address emiter);\n    event ForSaleToDistributor(uint dna, address emiter, uint price);\n    event SoldToDistributor(uint dna, address emiter);\n    event ShippedToDistributor(uint dna, address emiter);\n    event ReceivedForDistributor(uint dna, address emiter);\n    event PurchasedForDistributor(uint dna, address emiter);\n    event ForSaleToManufacturer(uint dna, address emiter, uint price);\n    event SoldToManufacturer(uint dna, address emiter);\n    event ShippedToManufacturer(uint dna, address emiter);\n    event ReceivedForManufacturer(uint dna, address emiter);\n    event PurchasedForManufacturer(uint dna, address emiter);\n\n    // In the constructor set 'owner' to the address that instantiated the contract\n    // and set 'sku' to 1\n    // and set 'upc' to 1\n    constructor() public payable {\n        //owner = msg.sender;\n        sku = 1;\n        dna = 1;\n    }\n\n    // Define a modifer that checks to see if msg.sender == owner of the contract\n    // Already in Ownable contract\n    /*\n    modifier onlyOwner() {\n        require(msg.sender == owner);\n        _;\n    }\n    */\n\n    // Define a modifer that verifies the Caller\n    modifier verifyCaller (address _address) {\n        require(\n            msg.sender == _address,\n            \"Caller not authorized\"\n        ); \n        _;\n    }\n\n    // Define a modifier that checks if the paid amount is sufficient to cover the price\n    modifier paidEnough (uint _price) { \n        require(\n            msg.value >= _price,\n            \"Paid amount not sufficient\"\n        ); \n        _;\n    }\n  \n    // Define a modifier that checks the price and refunds the remaining balance\n    modifier checkValue (uint _dna) {\n        _;\n        uint _price = items[_dna].productPrice;\n        uint amountToReturn = msg.value - _price;\n        msg.sender.transfer(amountToReturn);\n        //items[_dna].autoManufacturerID.transfer(amountToReturn);\n    }\n\n    // Define a modifier that checks if an item.state of a upc is Sold\n    modifier checkItemState (uint _dna, State _state, string memory _errorMessage) {\n        require(items[_dna].itemState == _state, _errorMessage);\n        _;\n    }\n\n    // Check if a _dna is already in the items mapping\n    modifier checkDnaInItems (uint _dna) {\n        require(items[_dna].existItem, \"DNA doesn`t exist in items mapping\");\n        _;\n    }\n\n    // Define a function 'kill' if required\n    function kill() public onlyOwner {\n        selfdestruct(this.owner());\n        /*\n        if (msg.sender == owner) {\n            selfdestruct(owner);\n        }\n        */\n    }\n\n    // Define a function 'collectItem' that allows a producer to mark an item 'Collected'\n    // In this function we will create first the item\n    function collectItem (\n        uint _dna, \n        address payable _originAluminumProducerID, \n        string memory _originAluminumProducerName, \n        string memory _originAluminumProducerInformation, \n        string memory _originAluminumProducerLatitude, \n        string memory _originAluminumProducerLongitude, \n        string memory _productNotes) public onlyAluminumProducer() {\n        // Add the new item as part of collect\n        Item memory newItem = Item(\n            sku, \n            _dna,\n            true,\n            _originAluminumProducerID, \n            _originAluminumProducerID,\n            _originAluminumProducerName,\n            _originAluminumProducerInformation, \n            _originAluminumProducerLatitude,\n            _originAluminumProducerLongitude,\n            _dna + sku,\n            _productNotes,\n            0,\n            State.Collected,\n            address(0),\n            address(0));\n        items[_dna] = newItem;\n\n        // Increment sku\n        sku = sku + 1;\n        // Emit the appropriate event\n        emit Collected(_dna, msg.sender);\n    }\n\n    // Define a function 'processtItem' that allows a producer to mark an item 'Processed'\n    function processItem(uint _dna) public \n        onlyAluminumProducer()\n        verifyCaller(items[_dna].ownerID) // Check if caller is the owner of the item\n        checkDnaInItems (_dna)\n        checkItemState (_dna, State.Collected, \"Aluminum asset not collected.\")\n    {\n      // Update the appropriate fields\n      items[_dna].itemState = State.Processed;\n    \n      // Emit the appropriate event\n      emit Processed(_dna, msg.sender);\n    }\n\n    // Define a function 'packItem' that allows a producer to mark an item 'Packed'\n    function packItem(uint _dna) public\n        onlyAluminumProducer()\n        checkDnaInItems (_dna)\n        verifyCaller(items[_dna].ownerID) // Check if caller is the owner of the item\n        checkItemState (_dna, State.Processed, \"Aluminum asset not processed.\")\n    {\n        // Update the appropriate fields\n        items[_dna].itemState = State.Packed;\n    \n        // Emit the appropriate event\n        emit Packed(_dna, msg.sender);\n    }\n\n    // Define a function 'sellItem' that allows a producer to mark an item 'ForSaleToDistributor'\n    function sellItemToDistributor(uint _dna, uint _price) public\n        onlyAluminumProducer()\n        checkDnaInItems (_dna)\n        verifyCaller(items[_dna].ownerID) // Check if caller is the owner of the item\n        checkItemState (_dna, State.Packed, \"Aluminum asset not Packed.\")\n    {\n        // Update the appropriate fields\n        items[_dna].itemState = State.ForSaleToDistributor;\n        items[_dna].productPrice = _price;\n    \n        // Emit the appropriate event\n        emit ForSaleToDistributor(_dna, msg.sender, _price);\n    }\n\n    // Define a function 'buyItemDistributor' that allows the disributor to mark an item 'Sold'\n    // Use the above defined modifiers to check if the item is available for sale, if the buyer has paid enough, \n    // and any excess ether sent is refunded back to the buyer\n    function buyItemDistributor(uint _dna) public payable \n        onlyDistributor()   // Check if caller is a distributor\n        checkDnaInItems (_dna)  // check if the item dna exists in the supply chain\n        checkItemState (_dna, State.ForSaleToDistributor, \"Aluminum asset not ForSaleToDistributor.\")   // Check if item dna has passed previous supply chain stage\n        paidEnough(items[_dna].productPrice)    // Check if buyer has paid enough\n        checkValue(_dna)    // Send any excess ether back to buyer\n    {\n    \n        // Update the appropriate fields - ownerID, distributorID, itemState\n        items[_dna].ownerID = msg.sender;\n        items[_dna].distributorID = msg.sender;\n        items[_dna].itemState = State.SoldToDistributor;\n    \n        // Transfer money to aluminum producer\n        items[_dna].originAluminumProducerID.transfer(items[_dna].productPrice);\n    \n        // emit the appropriate event\n        emit SoldToDistributor(_dna, msg.sender);\n    }\n\n    // Define a function 'shipItem' that allows the producer to mark an item 'Shipped'\n    // Use the above modifers to check if the item is sold\n    function shipItemDistributor(uint _dna) public \n        onlyAluminumProducer()  // Check if caller is a producer\n        checkDnaInItems (_dna)  // check if the item dna exists in the supply chain\n        verifyCaller(items[_dna].originAluminumProducerID) // Check if caller is the aluminum producer of the item\n        checkItemState (_dna, State.SoldToDistributor, \"Aluminum asset not SoldToDistributor.\")   // Check if item dna has passed previous supply chain stage    \n    {\n        // Update the appropriate fields\n        items[_dna].itemState = State.ShippedToDistributor;\n    \n        // emit the appropriate event\n        emit ShippedToDistributor(_dna, msg.sender);\n    }\n\n    // Define a function 'receiveItemDistributor' that allows the distributor to mark an item 'Received'\n    // Use the above modifiers to check if the item is shipped\n    function receiveItemDistributor(uint _dna) public \n        onlyDistributor()   // Check if caller is a distributor\n        checkDnaInItems (_dna)  // check if the item dna exists in the supply chain\n        verifyCaller(items[_dna].ownerID) // Check if caller is the owner of the item\n        checkItemState (_dna, State.ShippedToDistributor, \"Aluminum asset not ShippedToDistributor.\")   // Check if item dna has passed previous supply chain stage\n    {\n        // Update the appropriate fields\n        items[_dna].itemState = State.ReceivedForDistributor;\n    \n        // Emit the appropriate event\n        emit ReceivedForDistributor(_dna, msg.sender);\n    }\n\n    // Define a function 'purchaseItemDistributor' that allows the distributor to mark an item 'Purchased'\n    // Use the above modifiers to check if the item is received\n    function purchaseItemDistributor(uint _dna) public \n        onlyDistributor()   // Check if caller is a distributor\n        checkDnaInItems (_dna)  // check if the item dna exists in the supply chain\n        verifyCaller(items[_dna].ownerID) // Check if caller is the owner of the item\n        checkItemState (_dna, State.ReceivedForDistributor, \"Aluminum asset not ReceivedForDistributor.\")   // Check if item dna has passed previous supply chain stage\n    {\n        // Update the appropriate fields\n        items[_dna].itemState = State.PurchasedForDistributor;\n    \n        // Emit the appropriate event\n        emit PurchasedForDistributor(_dna, msg.sender);\n    }\n\n    // Define a function 'sellItemToManufacturer' that allows a distributor to mark an item 'ForSaleToManufacturer'\n    function sellItemToManufacturer(uint _dna, uint _price) public\n        onlyDistributor()   // Check if caller is a distributor\n        checkDnaInItems (_dna)  // check if the item dna exists in the supply chain\n        verifyCaller(items[_dna].ownerID) // Check if caller is the owner of the item\n        checkItemState (_dna, State.PurchasedForDistributor, \"Aluminum asset not PurchasedForDistributor.\") // Check if item dna has passed previous supply chain stage\n    {\n        // Update the appropriate fields\n        items[_dna].itemState = State.ForSaleToManufacturer;\n        items[_dna].productPrice = _price;\n    \n        // Emit the appropriate event\n        emit ForSaleToManufacturer(_dna, msg.sender, _price);\n    }\n\n    // Define a function 'buyItemDistributor' that allows the disributor to mark an item 'Sold'\n    // Use the above defined modifiers to check if the item is available for sale, if the buyer has paid enough, \n    // and any excess ether sent is refunded back to the buyer\n    function buyItemManufacturer(uint _dna) public payable \n        onlyAutoManufacturer()   // Check if caller is an auto manufacturer\n        checkDnaInItems (_dna)  // check if the item dna exists in the supply chain\n        checkItemState (_dna, State.ForSaleToManufacturer, \"Aluminum asset not ForSaleToManufacturer.\")   // Check if item dna has passed previous supply chain stage\n        paidEnough(items[_dna].productPrice)    // Check if buyer has paid enough\n        checkValue(_dna)    // Send any excess ether back to buyer\n    {\n    \n        // Update the appropriate fields - ownerID, distributorID, itemState\n        items[_dna].ownerID = msg.sender;\n        items[_dna].autoManufacturerID = msg.sender;\n        items[_dna].itemState = State.SoldToManufacturer;\n    \n        // Transfer money to distributor from auto manufacturer\n        items[_dna].distributorID.transfer(items[_dna].productPrice);\n    \n        // emit the appropriate event\n        emit SoldToManufacturer(_dna, msg.sender);\n    }\n\n    // Define a function 'shipItemManufacturer' that allows the distributor to mark an item 'Shipped'\n    function shipItemManufacturer(uint _dna) public \n        onlyDistributor()  // Check if caller is a distributor\n        checkDnaInItems (_dna)  // check if the item dna exists in the supply chain\n        verifyCaller(items[_dna].distributorID) // Check if caller is the distributor of the item\n        checkItemState (_dna, State.SoldToManufacturer, \"Aluminum asset not SoldToManufacturer.\")   // Check if item dna has passed previous supply chain stage    \n    {\n        // Update the appropriate fields\n        items[_dna].itemState = State.ShippedToManufacturer;\n    \n        // emit the appropriate event\n        emit ShippedToManufacturer(_dna, msg.sender);\n    }\n\n    // Define a function 'receiveItemManufacturer' that allows the auto manufacturer to mark an item 'Received'\n    function receiveItemManufacturer(uint _dna) public \n        onlyAutoManufacturer()   // Check if caller is an auto manufacturer\n        checkDnaInItems (_dna)  // check if the item dna exists in the supply chain\n        verifyCaller(items[_dna].ownerID) // Check if caller is the owner of the item\n        checkItemState (_dna, State.ShippedToManufacturer, \"Aluminum asset not ShippedToManufacturer.\")   // Check if item dna has passed previous supply chain stage\n    {\n        // Update the appropriate fields\n        items[_dna].itemState = State.ReceivedForManufacturer;\n    \n        // Emit the appropriate event\n        emit ReceivedForManufacturer(_dna, msg.sender);\n    }\n\n    // Define a function 'purchaseItemDistributor' that allows the distributor to mark an item 'Purchased'\n    function purchaseItemManufacturer(uint _dna) public \n        onlyAutoManufacturer()   // Check if caller is an auto manufacturer\n        checkDnaInItems (_dna)  // check if the item dna exists in the supply chain\n        verifyCaller(items[_dna].ownerID) // Check if caller is the owner of the item\n        checkItemState (_dna, State.ReceivedForManufacturer, \"Aluminum asset not ReceivedForManufacturer.\")   // Check if item dna has passed previous supply chain stage\n    {\n        // Update the appropriate fields\n        items[_dna].itemState = State.PurchasedForManufacturer;\n    \n        // Emit the appropriate event\n        emit PurchasedForManufacturer(_dna, msg.sender);\n    }\n\n    // Define a function 'fetchItemBufferOne' that fetches public data\n    function fetchItemBufferPublic(uint _dna) public checkDnaInItems (_dna) view returns \n    (\n        uint    itemSKU,\n        uint    itemADN,\n        address ownerID,\n        address originAluminumProducerID,\n        string  memory originAluminumProducerName,\n        string  memory originAluminumProducerInformation,\n        string  memory originAluminumProducerLatitude,\n        string  memory originAluminumProducerLongitude,\n        State    itemState,\n        uint    productPrice,\n        address distributorID\n    )\n    {\n        // Assign values to the parameters\n        Item memory itemFound = items[_dna];\n        itemSKU = itemFound.sku;\n        itemADN = itemFound.dna;\n        ownerID = itemFound.ownerID;\n        originAluminumProducerID = itemFound.originAluminumProducerID;\n        originAluminumProducerName = itemFound.originAluminumProducerName;\n        originAluminumProducerInformation = itemFound.originAluminumProducerInformation;\n        originAluminumProducerLatitude = itemFound.originAluminumProducerLatitude;\n        originAluminumProducerLongitude = itemFound.originAluminumProducerLongitude;\n        itemState = itemFound.itemState;\n        productPrice = itemFound.productPrice;\n        distributorID = itemFound.distributorID;\n    \n        return \n        (\n            itemSKU,\n            itemADN,\n            ownerID,\n            originAluminumProducerID,\n            originAluminumProducerName,\n            originAluminumProducerInformation,\n            originAluminumProducerLatitude,\n            originAluminumProducerLongitude,\n            itemState,\n            productPrice,\n            distributorID\n        );\n    }\n\n    // Define a function 'fetchItemBuffetchItemBufferForDistributorferOne' that fetches data only for distributor\n    function fetchItemBufferForDistributor(uint _dna) public checkDnaInItems (_dna) view returns\n    (\n        uint    itemSKU,\n        uint    itemADN,\n        address ownerID,\n        address originAluminumProducerID,\n        string  memory originAluminumProducerName,\n        string  memory originAluminumProducerInformation,\n        string  memory originAluminumProducerLatitude,\n        string  memory originAluminumProducerLongitude,\n        string  memory productNotes,\n        State    itemState\n    )\n    {\n        // Assign values to the parameters\n        Item memory itemFound = items[_dna];\n        itemSKU = itemFound.sku;\n        itemADN = itemFound.dna;\n        ownerID = itemFound.ownerID;\n        originAluminumProducerID = itemFound.originAluminumProducerID;\n        originAluminumProducerName = itemFound.originAluminumProducerName;\n        originAluminumProducerInformation = itemFound.originAluminumProducerInformation;\n        originAluminumProducerLatitude = itemFound.originAluminumProducerLatitude;\n        originAluminumProducerLongitude = itemFound.originAluminumProducerLongitude;\n        productNotes = itemFound.productNotes;\n        itemState = itemFound.itemState;\n\n        return \n        (\n            itemSKU,\n            itemADN,\n            ownerID,\n            originAluminumProducerID,\n            originAluminumProducerName,\n            originAluminumProducerInformation,\n            originAluminumProducerLatitude,\n            originAluminumProducerLongitude,\n            productNotes,\n            itemState\n        );\n    }\n\n    // Define a function 'fetchItemBufferForManufacturer' that fetches data only for manufacturer\n    function fetchItemBufferForManufacturer(uint _dna) public checkDnaInItems (_dna) view returns\n    (\n        uint    itemSKU,\n        uint    itemADN,\n        address ownerID,\n        address originAluminumProducerID,\n        string  memory originAluminumProducerName,\n        string  memory productNotes,\n        address distributorID,\n        State    itemState\n    )\n    {\n        // Assign values to the parameters\n        Item memory itemFound = items[_dna];\n        itemSKU = itemFound.sku;\n        itemADN = itemFound.dna;\n        ownerID = itemFound.ownerID;\n        originAluminumProducerID = itemFound.originAluminumProducerID;\n        originAluminumProducerName = itemFound.originAluminumProducerName;\n        productNotes = itemFound.productNotes;\n        distributorID = itemFound.distributorID;\n        itemState = itemFound.itemState;\n\n        return \n        (\n            itemSKU,\n            itemADN,\n            ownerID,\n            originAluminumProducerID,\n            originAluminumProducerName,\n            productNotes,\n            distributorID,\n            itemState\n        );\n    }\n}\n",
  "sourcePath": "/Users/juansenoret/Documents/trainings/blockchain/Udacity_nanodegree_blockchain/chapters/chapter_7_architecture/code/smart_metal_supply_chain/project-6/contracts/aluminumbase/SupplyChain.sol",
  "compiler": {
    "name": "solc",
    "version": "0.5.4+commit.9549d8ff.Emscripten.clang"
  },
  "schemaVersion": "3.0.1",
  "updatedAt": "2019-02-19T11:12:16.620Z",
  "devdoc": {
    "methods": {}
  },
  "userdoc": {
    "methods": {}
  }
}