{
  "contractName": "AluminumProducerRole",
  "abi": [
    {
      "inputs": [],
      "payable": false,
      "stateMutability": "nonpayable",
      "type": "constructor"
    },
    {
      "anonymous": false,
      "inputs": [
        {
          "indexed": true,
          "name": "account",
          "type": "address"
        }
      ],
      "name": "AluminumProducerAdded",
      "type": "event"
    },
    {
      "anonymous": false,
      "inputs": [
        {
          "indexed": true,
          "name": "account",
          "type": "address"
        }
      ],
      "name": "AluminumProducerRemoved",
      "type": "event"
    },
    {
      "constant": true,
      "inputs": [
        {
          "name": "account",
          "type": "address"
        }
      ],
      "name": "isAluminumProducer",
      "outputs": [
        {
          "name": "",
          "type": "bool"
        }
      ],
      "payable": false,
      "stateMutability": "view",
      "type": "function"
    },
    {
      "constant": false,
      "inputs": [
        {
          "name": "account",
          "type": "address"
        }
      ],
      "name": "addAluminumProducer",
      "outputs": [],
      "payable": false,
      "stateMutability": "nonpayable",
      "type": "function"
    },
    {
      "constant": false,
      "inputs": [],
      "name": "renounceAluminumProducer",
      "outputs": [],
      "payable": false,
      "stateMutability": "nonpayable",
      "type": "function"
    }
  ],
  "bytecode": "0x608060405234801561001057600080fd5b5061002333640100000000610028810204565b6101e9565b61004060008264010000000061024061007782021704565b604051600160a060020a038216907fa5e4b3b8add4feb7e325358e5031d88542781bb3b89f8acdf25b3849958847d090600090a250565b600160a060020a03811615156100d8576040517f08c379a000000000000000000000000000000000000000000000000000000000815260040180806020018281038252602d815260200180610713602d913960400191505060405180910390fd5b6100eb8282640100000000610166810204565b15610141576040517f08c379a000000000000000000000000000000000000000000000000000000000815260040180806020018281038252603f81526020018061076d603f913960400191505060405180910390fd5b600160a060020a0316600090815260209190915260409020805460ff19166001179055565b6000600160a060020a03821615156101c9576040517f08c379a000000000000000000000000000000000000000000000000000000000815260040180806020018281038252602d815260200180610740602d913960400191505060405180910390fd5b50600160a060020a03166000908152602091909152604090205460ff1690565b61051b806101f86000396000f3fe608060405234801561001057600080fd5b506004361061005d577c010000000000000000000000000000000000000000000000000000000060003504630bd8393681146100625780633025e8751461008a578063b5dbc212146100c4575b600080fd5b6100886004803603602081101561007857600080fd5b5035600160a060020a03166100cc565b005b6100b0600480360360208110156100a057600080fd5b5035600160a060020a0316610121565b604080519115158252519081900360200190f35b610088610139565b6100d533610121565b15156101155760405160e560020a62461bcd0281526004018080602001828103825260358152602001806104bb6035913960400191505060405180910390fd5b61011e81610144565b50565b6000610133818363ffffffff61018c16565b92915050565b610142336101f8565b565b61015560008263ffffffff61024016565b604051600160a060020a038216907fa5e4b3b8add4feb7e325358e5031d88542781bb3b89f8acdf25b3849958847d090600090a250565b6000600160a060020a03821615156101d85760405160e560020a62461bcd02815260040180806020018281038252602d81526020018061044f602d913960400191505060405180910390fd5b50600160a060020a03166000908152602091909152604090205460ff1690565b61020960008263ffffffff6102f816565b604051600160a060020a038216907f60317d9a39f73b49d177ea56cdb9da49f2f964742fa0b5760cfe6c87f73d31b190600090a250565b600160a060020a038116151561028a5760405160e560020a62461bcd02815260040180806020018281038252602d8152602001806103df602d913960400191505060405180910390fd5b610294828261018c565b156102d35760405160e560020a62461bcd02815260040180806020018281038252603f81526020018061047c603f913960400191505060405180910390fd5b600160a060020a0316600090815260209190915260409020805460ff19166001179055565b600160a060020a03811615156103425760405160e560020a62461bcd0281526004018080602001828103825260308152602001806103af6030913960400191505060405180910390fd5b61034c828261018c565b151561038c5760405160e560020a62461bcd02815260040180806020018281038252604381526020018061040c6043913960600191505060405180910390fd5b600160a060020a0316600090815260209190915260409020805460ff1916905556fe41646472657373206163636f756e74206e756c6c20696e2066756e6374696f6e2072656d6f76652074686520726f6c6541646472657373206163636f756e74206e756c6c20696e2066756e6374696f6e20616464206e657720726f6c65546865206164647265737320676976656e20646f65736ec2b474206861732074686520726f6c6520696e2066756e6374696f6e2072656d6f76652074686520726f6c6541646472657373206163636f756e74206e756c6c20696e2066756e6374696f6e206861732074686520726f6c65546865206164647265737320676976656e2068617320616c72656164792074686520726f6c6520696e2066756e6374696f6e20616464206e657720726f6c65546865206164647265737320646f65736ec2b474206d61746368207769746820616e7920616c756d696e756d2070726f6475636572a165627a7a7230582091a592f42229706299cca99baeb821750c95973e8420913e74875b473addda7d002941646472657373206163636f756e74206e756c6c20696e2066756e6374696f6e20616464206e657720726f6c6541646472657373206163636f756e74206e756c6c20696e2066756e6374696f6e206861732074686520726f6c65546865206164647265737320676976656e2068617320616c72656164792074686520726f6c6520696e2066756e6374696f6e20616464206e657720726f6c65",
  "source": "pragma solidity ^0.5.0;\n\n// Import the library 'Roles'\nimport \"./Roles.sol\";\n\n// Define a contract 'AluminumProducerRole' to manage this role - add, remove, check\ncontract AluminumProducerRole {\n    using Roles for Roles.Role;\n\n    // Define 2 events, one for Adding, and other for Removing\n    event AluminumProducerAdded(address indexed account);\n    event AluminumProducerRemoved(address indexed account);\n\n    // Define a struct 'aluminumProducers' by inheriting from 'Roles' library, struct Role\n    Roles.Role private aluminumProducers;\n\n    // In the constructor make the address that deploys this contract the 1st aluminium producer\n    constructor() public {\n        _addAluminumProducer(msg.sender);\n    }\n\n    // Define a modifier that checks to see if msg.sender has the appropriate role\n    modifier onlyAluminumProducer() {\n        require(isAluminumProducer(msg.sender), \"The address doesn´t match with any aluminum producer\");\n        _;\n    }\n\n    // Define a function 'isAluminiumProducer' to check this role\n    function isAluminumProducer(address account) public view returns (bool) {\n        return aluminumProducers.has(account);\n    }\n\n    // Define a function 'addAluminiumProducer' that adds this role\n    function addAluminumProducer(address account) public onlyAluminumProducer() {\n        _addAluminumProducer(account);\n    }\n\n    // Define a function 'renounceAluminumProducer' to renounce this role\n    function renounceAluminumProducer() public {\n        _removeAluminumProducer(msg.sender);\n    }\n\n    // Define an internal function '_addAluminumProducer' to add this role, called by 'addFarmer'\n    function _addAluminumProducer(address account) internal {\n        aluminumProducers.add(account);\n        emit AluminumProducerAdded(account);\n    }\n\n    // Define an internal function '_removeAluminumProducer' to remove this role, called by 'removeFarmer'\n    function _removeAluminumProducer(address account) internal {\n        aluminumProducers.remove(account);\n        emit AluminumProducerRemoved(account);\n    }\n}",
  "sourcePath": "/Users/juansenoret/Documents/trainings/blockchain/Udacity_nanodegree_blockchain/chapters/chapter_7_architecture/code/smart_metal_supply_chain/project-6/contracts/aluminumaccesscontrol/AluminumProducerRole.sol",
  "compiler": {
    "name": "solc",
    "version": "0.5.4+commit.9549d8ff.Emscripten.clang"
  },
  "schemaVersion": "3.0.1",
  "updatedAt": "2019-02-19T18:35:03.856Z",
  "devdoc": {
    "methods": {}
  },
  "userdoc": {
    "methods": {}
  }
}